:10001E00FAB9015FFB4D015FFC0C015FFAB9015F9C
:10002E00FB4D01D4FC7B015FFB4D015FFC0C015FBE
:10003E00FAB9015FFB4D01D4FC7B015FFB4D015F03
:10004E00FC0C015FFAB9015FFB4D00EAF8F500EA1E
:10005E00FC7B015FFB4D015FFC0C015FFAB9015F98
:10006E00FB4D00EAF8F500EAFC7B015FFB4D015FFA
:10007E00FC0C015FFAB9015FFB4D00EAF8F500EAEE
:10008E00FC7B015FFB4D015FFC0C015FFAB9015F68
:10009E00FB4D00EAF8F500EAFC7B015FFB4D015FCA
:1000AE00FC0C015FFAB9015FFB4D00EAF8F500EABE
:1000BE00FC7B015FFB4D015FFC0C015FFAB9015F38
:1000CE00FB4D00EAF8F500EAFC7B015FFB4D015F9A
:1000DE00FC0C015FFAB9015FFB4D00EAF8F500EA8E
:1000EE00FC0C0075FC7B0075FD0A00EAFC7B00EA47
:1000FE00FC0C00EAFB4D01D4FA1400EAF9B900EA4F
:10010E00F8F501D4F8F501D4F8F500EAF81800EA8C
:10011E00F69900EAF57200EAF69900EAF81800EA94
:10012E00F818015FF6990075F69900EAF81800EADA
:10013E00F81800EAF6990075F69900EAF69900EAC1
:10014E00F81800EAF81800EAF6990075F69900EA30
:10015E00F6990075F69900EAF81800EAF81801D435
:10016E00F8180075F8F5015FFA1400EAF9B900EA1B
:10017E00F8F501D4F8F5015FF8F50075F8F500EA29
:10018E00F81800EAF69900EAF57200EAF69900EA24
:10019E00F81800EAF818015FF6990075F69900EA6A
:1001AE00F81800EAF81800EAF6990075F69900EAD0
:1001BE00F69900EAF81800EAF81800EAF6990075C0
:1001CE00F69900EAF6990075F69900EAF81800EA31
:1001DE00F81801D4F8180075F8F5015FFA1400EA62
:1001EE00F9B900EAF8F501D4F8F501D4F8F500EA0A
:1001FE00F81800EAF69900EAF57200EAF69900EAB4
:10020E00F81800EAF818015FF6990075F69900EAF9
:10021E00F81800EAF81800EAF6990075F69900EA5F
:10022E00F69900EAF81800EAF81800EAF69900754F
:10023E00F69900EAF6990075F69900EAF81800EAC0
:10024E00F81801D4F8180075F8F5015FFA1400EAF1
:10025E00F9B900EAF8F501D4F8F5015FF8F5007583
:10026E00F8F500EAF81800EAF69900EAF57200EAE5
:10027E00F69900EAF81800EAF818015FF699007589
:10028E00F69900EAF81800EAF81800EAF6990075EF
:10029E00F69900EAF69900EAF81800EAF81800EA6A
:1002AE00F6990075F69900EAF6990075F69900EA46
:1002BE00F81800EAF81801D4F8180075F8F50334A8
:1002CE00F8F501D4F8F500EAF81800EAF8F500EAB6
:1002DE00FA1400EAF8F500EAF81800EAF8180075C2
:1002EE00F8F50075F81800EAF8F500EAFAB902BF59
:1002FE00FAB90075FB4D0075FAB900EAFB4D015FC6
:10030E00FB4D0075FC0C01D4FC0C00EAFB4D00EA21
:10031E00FB4D00EAFAB900EAFB4D00EAFC0C01D4F1
:10032E00FB4D0075FC0C01D4FB4D0075F8F501D4A6
:10033E00F8F500EAF81800EAF8F500EAFA1400EA0F
:10034E00F8F500EAF81800EAF8180075F8F50075E7
:10035E00F81800EAF8F500EAFAB902BFFAB9007522
:10036E00FB4D0075FAB900EAFB4D015FFB4D0075C0
:10037E00FC0C01D4FC0C00EAFB4D00EAFB4D00EA3C
:10038E00FAB900EAFB4D00EAFC0C01D4FB4D0075F6
:10039E00FC0C01D4FB4D0075FA1400EAF9B900EA21
:1003AE00F8F501D4F8F501D4F8F500EAF81800EAEA
:1003BE00F69900EAF57200EAF69900EAF81800EAF2
:1003CE00F818015FF6990075F69900EAF81800EA38
:1003DE00F81800EAF6990075F69900EAF69900EA1F
:1003EE00F81800EAF81800EAF6990075F69900EA8E
:1003FE00F6990075F69900EAF81800EAF81801D493
:10040E00F8180075F8F5015FFA1400EAF9B900EA78
:10041E00F8F501D4F8F5015FF8F50075F8F500EA86
:10042E00F81800EAF69900EAF57200EAF69900EA81
:10043E00F81800EAF818015FF6990075F69900EAC7
:10044E00F81800EAF81800EAF6990075F69900EA2D
:10045E00F69900EAF81800EAF81800EAF69900751D
:10046E00F69900EAF6990075F69900EAF81800EA8E
:10047E00F81801D4F8180075F8F50334F8F501D41E
:10048E00F8F500EAF81800EAF8F500EAFA1400EABE
:10049E00F8F500EAF81800EAF8180075F8F5007596
:1004AE00F81800EAF8F500EAFAB902BFFAB90075D1
:1004BE00FB4D0075FAB900EAFB4D015FFB4D00756F
:1004CE00FC0C01D4FC0C00EAFB4D00EAFB4D00EAEB
:1004DE00FAB900EAFB4D00EAFC0C01D4FB4D0075A5
:1004EE00FC0C01D4FB4D0075F8F501D4F8F500EACB
:1004FE00F81800EAF8F500EAFA1400EAF8F500EA4E
:10050E00F81800EAF8180075F8F50075F81800EA02
:10051E00F8F500EAFAB902BFFAB90075FB4D00759D
:10052E00FAB900EAFB4D015FFB4D0075FC0C01D4DE
:10053E00FC0C00EAFB4D00EAFB4D00EAFAB900EABA
:10054E00FB4D00EAFC0C01D4FB4D0075FC0C01D4F4
:10055E00FB4D0075F8F501D4F8F500EAF81800EA3D
:10056E00F8F500EAFA1400EAF8F500EAF81800EADD
:10057E00F8180075F8F50075F81800EAF8F500EAB5
:10058E00FAB902BFFAB90075FB4D0075FAB900EA67
:10059E00FB4D015FFB4D0075FC0C01D4FC0C00EA19
:1005AE00FB4D00EAFB4D00EAFAB900EAFB4D00EA0A
:1005BE00FC0C01D4FB4D0075FC0C01D4FB4D0075F9
:1005CE00F8F501D4F8F500EAF81800EAF8F500EAB3
:1005DE00FA1400EAF8F500EAF81800EAF8180075BF
:1005EE00F8F50075F81800EAF8F500EAFAB902BF56
:1005FE00FAB90075FB4D0075FAB900EAFB4D015FC3
:10060E00FB4D0075FC0C01D4FC0C00EAFB4D00EA1E
:10061E00FB4D00EAFAB900EAFB4D00EAFC0C01D4EE
:10062E00FB4D0075FC0C00EAF8F501D4F81800EA51
:10063E00F8F50A12F95A00EAFA1402BFF8F50A128E
:10064E00F818057EF8F5083DF95A00EAFA1402BFCB
:08065E00F8F50A12000000008B
:0B07160053890F438910D2ABD2AF22F1
:1006BF00AD07AC068D828C83E493FF700B049370AF
:1006CF0007D200C28ED2B4228F8D8D828C8374019B
:1006DF0093F58B8D828C83740293750800F50975E1
:1006EF000900F5087403934209E508C313F508E5FB
:0B06FF000913F5098C0A8D0BD28E2226
:03001B0002066674
:10066600C0E0C083C082C0D075D000C004C005C041
:1006760006C007850B82850A83E493F58D850B8278
:10068600850A83740193F58BB2B4E50915097002E6
:10069600150814450870117404250BF50BE4350A8A
:1006A600F50AAF0BFE1206BFD007D006D005D00460
:0906B600D0D0D082D083D0E03214
:10000300120716C2007E007F1E8E0A8F0B1206BFD8
:050013003000FD80FE3D
:0300000002070AEA
:0C070A00787FE4F6D8FD75812002000322
:00000001FF
